{
  "contractName": "InitialVoting",
  "abi": [
    {
      "inputs": [
        {
          "internalType": "address",
          "name": "voter",
          "type": "address"
        }
      ],
      "name": "registerVoter",
      "outputs": [],
      "stateMutability": "nonpayable",
      "type": "function"
    },
    {
      "inputs": [
        {
          "internalType": "address",
          "name": "voter",
          "type": "address"
        }
      ],
      "name": "confirmVoter",
      "outputs": [
        {
          "internalType": "bool",
          "name": "",
          "type": "bool"
        }
      ],
      "stateMutability": "view",
      "type": "function"
    }
  ],
  "bytecode": "0x608060405234801561001057600080fd5b5061033b806100206000396000f3fe608060405234801561001057600080fd5b50600436106100365760003560e01c806305bddfaa1461003b57806338db6dd31461006b575b600080fd5b61005560048036038101906100509190610225565b610087565b604051610062919061026d565b60405180910390f35b61008560048036038101906100809190610225565b6100dc565b005b60008060008373ffffffffffffffffffffffffffffffffffffffff1673ffffffffffffffffffffffffffffffffffffffff16815260200190815260200160002060009054906101000a900460ff169050919050565b6000808273ffffffffffffffffffffffffffffffffffffffff1673ffffffffffffffffffffffffffffffffffffffff16815260200190815260200160002060009054906101000a900460ff1615610168576040517f08c379a000000000000000000000000000000000000000000000000000000000815260040161015f906102e5565b60405180910390fd5b60016000808373ffffffffffffffffffffffffffffffffffffffff1673ffffffffffffffffffffffffffffffffffffffff16815260200190815260200160002060006101000a81548160ff02191690831515021790555050565b600080fd5b600073ffffffffffffffffffffffffffffffffffffffff82169050919050565b60006101f2826101c7565b9050919050565b610202816101e7565b811461020d57600080fd5b50565b60008135905061021f816101f9565b92915050565b60006020828403121561023b5761023a6101c2565b5b600061024984828501610210565b91505092915050565b60008115159050919050565b61026781610252565b82525050565b6000602082019050610282600083018461025e565b92915050565b600082825260208201905092915050565b7f566f74657220697320616c726561647920726567697374657265640000000000600082015250565b60006102cf601b83610288565b91506102da82610299565b602082019050919050565b600060208201905081810360008301526102fe816102c2565b905091905056fea26469706673582212200f2b62751a804b2b094f7a8b6ab6e3fbe6c60fd6de9222bcc48a395c26be0c9064736f6c63430008110033",
  "immutableReferences": {},
  "source": "// SPDX-License-Identifier: GPL-3.0\r\npragma solidity >=0.6.0 <0.9.0;\r\n\r\n\r\ncontract InitialVoting{\r\n\r\n    mapping(address => bool) voterList;\r\n\r\n    function registerVoter(address voter) public {\r\n        require(!voterList[voter], \"Voter is already registered\");\r\n        voterList[voter] = true;\r\n    }\r\n\r\n    \r\n    function confirmVoter(address voter) public view returns(bool) {\r\n        return (voterList[voter]);\r\n    }\r\n\r\n}",
  "sourcePath": "C:\\Users\\munem\\Desktop\\dVoting\\blockchain\\contracts\\InitialVoting.sol",
  "compiler": {
    "name": "solc",
    "version": "0.8.17+commit.8df45f5f.Emscripten.clang"
  },
  "schemaVersion": "3.4.11",
  "updatedAt": "2023-02-16T19:34:28.125Z",
  "devdoc": {
    "kind": "dev",
    "methods": {},
    "version": 1
  },
  "userdoc": {
    "kind": "user",
    "methods": {},
    "version": 1
  }
}