{
  "contractName": "ResultCalculation",
  "abi": [
    {
      "inputs": [
        {
          "internalType": "address",
          "name": "voter",
          "type": "address"
        }
      ],
      "name": "confirmVoter",
      "outputs": [
        {
          "internalType": "bool",
          "name": "",
          "type": "bool"
        }
      ],
      "stateMutability": "view",
      "type": "function",
      "constant": true
    },
    {
      "inputs": [
        {
          "internalType": "address",
          "name": "voter",
          "type": "address"
        }
      ],
      "name": "registerVoter",
      "outputs": [],
      "stateMutability": "nonpayable",
      "type": "function"
    },
    {
      "inputs": [
        {
          "internalType": "uint256",
          "name": "candidateID",
          "type": "uint256"
        }
      ],
      "name": "viewVotes",
      "outputs": [
        {
          "internalType": "uint256",
          "name": "",
          "type": "uint256"
        }
      ],
      "stateMutability": "view",
      "type": "function",
      "constant": true
    },
    {
      "inputs": [
        {
          "internalType": "uint256",
          "name": "candidateID",
          "type": "uint256"
        }
      ],
      "name": "vote",
      "outputs": [],
      "stateMutability": "nonpayable",
      "type": "function"
    },
    {
      "inputs": [],
      "name": "calculateResult",
      "outputs": [],
      "stateMutability": "nonpayable",
      "type": "function"
    },
    {
      "inputs": [],
      "name": "winner",
      "outputs": [
        {
          "internalType": "string",
          "name": "",
          "type": "string"
        }
      ],
      "stateMutability": "view",
      "type": "function",
      "constant": true
    },
    {
      "inputs": [],
      "name": "viewResult",
      "outputs": [
        {
          "internalType": "uint256",
          "name": "",
          "type": "uint256"
        }
      ],
      "stateMutability": "view",
      "type": "function",
      "constant": true
    }
  ],
  "bytecode": "0x60806040523480156200001157600080fd5b506040518060400160405280600a81526020017f4361646964617465204900000000000000000000000000000000000000000000815250600160008081526020019081526020016000209081620000699190620003f0565b506040518060400160405280600c81526020017f43616e646964617465204949000000000000000000000000000000000000000081525060016000600181526020019081526020016000209081620000c29190620003f0565b506040518060400160405280600d81526020017f43616e6469646174652049494900000000000000000000000000000000000000815250600160006002815260200190815260200160002090816200011b9190620003f0565b50600060026000808152602001908152602001600020819055506000600260006001815260200190815260200160002081905550600060026000600281526020019081526020016000208190555060038081905550620004d7565b600081519050919050565b7f4e487b7100000000000000000000000000000000000000000000000000000000600052604160045260246000fd5b7f4e487b7100000000000000000000000000000000000000000000000000000000600052602260045260246000fd5b60006002820490506001821680620001f857607f821691505b6020821081036200020e576200020d620001b0565b5b50919050565b60008190508160005260206000209050919050565b60006020601f8301049050919050565b600082821b905092915050565b600060088302620002787fffffffffffffffffffffffffffffffffffffffffffffffffffffffffffffffff8262000239565b62000284868362000239565b95508019841693508086168417925050509392505050565b6000819050919050565b6000819050919050565b6000620002d1620002cb620002c5846200029c565b620002a6565b6200029c565b9050919050565b6000819050919050565b620002ed83620002b0565b62000305620002fc82620002d8565b84845462000246565b825550505050565b600090565b6200031c6200030d565b62000329818484620002e2565b505050565b5b8181101562000351576200034560008262000312565b6001810190506200032f565b5050565b601f821115620003a0576200036a8162000214565b620003758462000229565b8101602085101562000385578190505b6200039d620003948562000229565b8301826200032e565b50505b505050565b600082821c905092915050565b6000620003c560001984600802620003a5565b1980831691505092915050565b6000620003e08383620003b2565b9150826002028217905092915050565b620003fb8262000176565b67ffffffffffffffff81111562000417576200041662000181565b5b620004238254620001df565b6200043082828562000355565b600060209050601f83116001811462000468576000841562000453578287015190505b6200045f8582620003d2565b865550620004cf565b601f198416620004788662000214565b60005b82811015620004a2578489015182556001820191506020850194506020810190506200047b565b86831015620004c25784890151620004be601f891682620003b2565b8355505b6001600288020188555050505b505050505050565b610b9780620004e76000396000f3fe608060405234801561001057600080fd5b506004361061007d5760003560e01c80633cff03801161005b5780633cff0380146100ea5780636e008b3514610108578063a002f6ed14610112578063dfbf53ae146101425761007d565b80630121b93f1461008257806305bddfaa1461009e57806338db6dd3146100ce575b600080fd5b61009c600480360381019061009791906104c6565b610160565b005b6100b860048036038101906100b39190610551565b6101d6565b6040516100c59190610599565b60405180910390f35b6100e860048036038101906100e39190610551565b61022b565b005b6100f2610311565b6040516100ff91906105c3565b60405180910390f35b61011061031b565b005b61012c600480360381019061012791906104c6565b6103dc565b60405161013991906105c3565b60405180910390f35b61014a6103f9565b604051610157919061066e565b60405180910390f35b610169336101d6565b6101a8576040517f08c379a000000000000000000000000000000000000000000000000000000000815260040161019f906106dc565b60405180910390fd5b60016002600083815260200190815260200160002060008282546101cc919061072b565b9250508190555050565b60008060008373ffffffffffffffffffffffffffffffffffffffff1673ffffffffffffffffffffffffffffffffffffffff16815260200190815260200160002060009054906101000a900460ff169050919050565b6000808273ffffffffffffffffffffffffffffffffffffffff1673ffffffffffffffffffffffffffffffffffffffff16815260200190815260200160002060009054906101000a900460ff16156102b7576040517f08c379a00000000000000000000000000000000000000000000000000000000081526004016102ae906107ab565b60405180910390fd5b60016000808373ffffffffffffffffffffffffffffffffffffffff1673ffffffffffffffffffffffffffffffffffffffff16815260200190815260200160002060006101000a81548160ff02191690831515021790555050565b6000600454905090565b600060048190555060005b60035481101561036f57600260008281526020019081526020016000205460046000828254610355919061072b565b925050819055508080610367906107cb565b915050610326565b506000805b6003548110156103d857600060026000838152602001908152602001600020549050828111156103c45780925060016000838152602001908152602001600020600590816103c29190610a79565b505b5080806103d0906107cb565b915050610374565b5050565b600060026000838152602001908152602001600020549050919050565b60606005805461040890610842565b80601f016020809104026020016040519081016040528092919081815260200182805461043490610842565b80156104815780601f1061045657610100808354040283529160200191610481565b820191906000526020600020905b81548152906001019060200180831161046457829003601f168201915b5050505050905090565b600080fd5b6000819050919050565b6104a381610490565b81146104ae57600080fd5b50565b6000813590506104c08161049a565b92915050565b6000602082840312156104dc576104db61048b565b5b60006104ea848285016104b1565b91505092915050565b600073ffffffffffffffffffffffffffffffffffffffff82169050919050565b600061051e826104f3565b9050919050565b61052e81610513565b811461053957600080fd5b50565b60008135905061054b81610525565b92915050565b6000602082840312156105675761056661048b565b5b60006105758482850161053c565b91505092915050565b60008115159050919050565b6105938161057e565b82525050565b60006020820190506105ae600083018461058a565b92915050565b6105bd81610490565b82525050565b60006020820190506105d860008301846105b4565b92915050565b600081519050919050565b600082825260208201905092915050565b60005b838110156106185780820151818401526020810190506105fd565b60008484015250505050565b6000601f19601f8301169050919050565b6000610640826105de565b61064a81856105e9565b935061065a8185602086016105fa565b61066381610624565b840191505092915050565b600060208201905081810360008301526106888184610635565b905092915050565b7f566f746572206e6f742072656769737465726564000000000000000000000000600082015250565b60006106c66014836105e9565b91506106d182610690565b602082019050919050565b600060208201905081810360008301526106f5816106b9565b9050919050565b7f4e487b7100000000000000000000000000000000000000000000000000000000600052601160045260246000fd5b600061073682610490565b915061074183610490565b9250828201905080821115610759576107586106fc565b5b92915050565b7f566f74657220697320616c726561647920726567697374657265640000000000600082015250565b6000610795601b836105e9565b91506107a08261075f565b602082019050919050565b600060208201905081810360008301526107c481610788565b9050919050565b60006107d682610490565b91507fffffffffffffffffffffffffffffffffffffffffffffffffffffffffffffffff8203610808576108076106fc565b5b600182019050919050565b7f4e487b7100000000000000000000000000000000000000000000000000000000600052602260045260246000fd5b6000600282049050600182168061085a57607f821691505b60208210810361086d5761086c610813565b5b50919050565b60008154905061088281610842565b9050919050565b7f4e487b7100000000000000000000000000000000000000000000000000000000600052604160045260246000fd5b60008190508160005260206000209050919050565b60008190508160005260206000209050919050565b60006020601f8301049050919050565b600082821b905092915050565b60006008830261092f7fffffffffffffffffffffffffffffffffffffffffffffffffffffffffffffffff826108f2565b61093986836108f2565b95508019841693508086168417925050509392505050565b6000819050919050565b600061097661097161096c84610490565b610951565b610490565b9050919050565b6000819050919050565b6109908361095b565b6109a461099c8261097d565b8484546108ff565b825550505050565b600090565b6109b96109ac565b6109c4818484610987565b505050565b5b818110156109e8576109dd6000826109b1565b6001810190506109ca565b5050565b601f821115610a2d576109fe816108b8565b610a07846108e2565b81016020851015610a16578190505b610a2a610a22856108e2565b8301826109c9565b50505b505050565b600082821c905092915050565b6000610a5060001984600802610a32565b1980831691505092915050565b6000610a698383610a3f565b9150826002028217905092915050565b818103610a87575050610b5f565b610a9082610873565b67ffffffffffffffff811115610aa957610aa8610889565b5b610ab38254610842565b610abe8282856109ec565b6000601f831160018114610aed5760008415610adb578287015490505b610ae58582610a5d565b865550610b58565b601f198416610afb876108cd565b9650610b06866108b8565b60005b82811015610b2e57848901548255600182019150600185019450602081019050610b09565b86831015610b4b5784890154610b47601f891682610a3f565b8355505b6001600288020188555050505b5050505050505b56fea264697066735822122043e2a21f3507c067bf091ee1529c9800b88b7752aaac60a018ea87c1b7eb6b8f64736f6c63430008110033",
  "immutableReferences": {},
  "source": "// SPDX-License-Identifier: GPL-3.0\r\npragma solidity >=0.6.0 <0.9.0;\r\nimport \"./VotingPlatform.sol\";\r\n\r\ncontract ResultCalculation is VotingPlatform {\r\n\r\n    uint result;\r\n    string winningCandidate;\r\n\r\n    function calculateResult() public {\r\n        result = 0;\r\n        for (uint i = 0; i < candidatesCount; i++) {\r\n            result += votes[i];\r\n        }\r\n\r\n        uint maxVotes = 0;\r\n        for (uint i = 0; i < candidatesCount; i++) {\r\n            uint currentVotes = votes[i];\r\n            if (currentVotes > maxVotes) {\r\n                maxVotes = currentVotes;\r\n                winningCandidate =candidates[i];\r\n            }\r\n        }\r\n    }\r\n\r\n    function winner() public view returns(string memory) {\r\n        return winningCandidate;\r\n    }\r\n\r\n    function viewResult() public view returns(uint) {\r\n        return result;\r\n    }\r\n\r\n}",
  "sourcePath": "C:\\Users\\munem\\Desktop\\dVoting\\blockchain\\contracts\\ResultCalculation.sol",
  "compiler": {
    "name": "solc",
    "version": "0.8.17+commit.8df45f5f.Emscripten.clang"
  },
  "schemaVersion": "3.4.11",
  "updatedAt": "2023-02-16T19:34:36.664Z",
  "networkType": "ethereum",
  "devdoc": {
    "kind": "dev",
    "methods": {},
    "version": 1
  },
  "userdoc": {
    "kind": "user",
    "methods": {},
    "version": 1
  }
}