{
  "contractName": "VotingPlatform",
  "abi": [
    {
      "inputs": [],
      "stateMutability": "nonpayable",
      "type": "constructor"
    },
    {
      "inputs": [
        {
          "internalType": "address",
          "name": "voter",
          "type": "address"
        }
      ],
      "name": "confirmVoter",
      "outputs": [
        {
          "internalType": "bool",
          "name": "",
          "type": "bool"
        }
      ],
      "stateMutability": "view",
      "type": "function"
    },
    {
      "inputs": [
        {
          "internalType": "address",
          "name": "voter",
          "type": "address"
        }
      ],
      "name": "registerVoter",
      "outputs": [],
      "stateMutability": "nonpayable",
      "type": "function"
    },
    {
      "inputs": [
        {
          "internalType": "uint256",
          "name": "candidateID",
          "type": "uint256"
        }
      ],
      "name": "vote",
      "outputs": [],
      "stateMutability": "nonpayable",
      "type": "function"
    },
    {
      "inputs": [
        {
          "internalType": "uint256",
          "name": "candidateID",
          "type": "uint256"
        }
      ],
      "name": "viewVotes",
      "outputs": [
        {
          "internalType": "uint256",
          "name": "",
          "type": "uint256"
        }
      ],
      "stateMutability": "view",
      "type": "function"
    }
  ],
  "bytecode": "0x60806040523480156200001157600080fd5b506040518060400160405280600a81526020017f4361646964617465204900000000000000000000000000000000000000000000815250600160008081526020019081526020016000209081620000699190620003f0565b506040518060400160405280600c81526020017f43616e646964617465204949000000000000000000000000000000000000000081525060016000600181526020019081526020016000209081620000c29190620003f0565b506040518060400160405280600d81526020017f43616e6469646174652049494900000000000000000000000000000000000000815250600160006002815260200190815260200160002090816200011b9190620003f0565b50600060026000808152602001908152602001600020819055506000600260006001815260200190815260200160002081905550600060026000600281526020019081526020016000208190555060038081905550620004d7565b600081519050919050565b7f4e487b7100000000000000000000000000000000000000000000000000000000600052604160045260246000fd5b7f4e487b7100000000000000000000000000000000000000000000000000000000600052602260045260246000fd5b60006002820490506001821680620001f857607f821691505b6020821081036200020e576200020d620001b0565b5b50919050565b60008190508160005260206000209050919050565b60006020601f8301049050919050565b600082821b905092915050565b600060088302620002787fffffffffffffffffffffffffffffffffffffffffffffffffffffffffffffffff8262000239565b62000284868362000239565b95508019841693508086168417925050509392505050565b6000819050919050565b6000819050919050565b6000620002d1620002cb620002c5846200029c565b620002a6565b6200029c565b9050919050565b6000819050919050565b620002ed83620002b0565b62000305620002fc82620002d8565b84845462000246565b825550505050565b600090565b6200031c6200030d565b62000329818484620002e2565b505050565b5b8181101562000351576200034560008262000312565b6001810190506200032f565b5050565b601f821115620003a0576200036a8162000214565b620003758462000229565b8101602085101562000385578190505b6200039d620003948562000229565b8301826200032e565b50505b505050565b600082821c905092915050565b6000620003c560001984600802620003a5565b1980831691505092915050565b6000620003e08383620003b2565b9150826002028217905092915050565b620003fb8262000176565b67ffffffffffffffff81111562000417576200041662000181565b5b620004238254620001df565b6200043082828562000355565b600060209050601f83116001811462000468576000841562000453578287015190505b6200045f8582620003d2565b865550620004cf565b601f198416620004788662000214565b60005b82811015620004a2578489015182556001820191506020850194506020810190506200047b565b86831015620004c25784890151620004be601f891682620003b2565b8355505b6001600288020188555050505b505050505050565b61058c80620004e76000396000f3fe608060405234801561001057600080fd5b506004361061004c5760003560e01c80630121b93f1461005157806305bddfaa1461006d57806338db6dd31461009d578063a002f6ed146100b9575b600080fd5b61006b600480360381019061006691906102f2565b6100e9565b005b6100876004803603810190610082919061037d565b61015f565b60405161009491906103c5565b60405180910390f35b6100b760048036038101906100b2919061037d565b6101b4565b005b6100d360048036038101906100ce91906102f2565b61029a565b6040516100e091906103ef565b60405180910390f35b6100f23361015f565b610131576040517f08c379a000000000000000000000000000000000000000000000000000000000815260040161012890610467565b60405180910390fd5b600160026000838152602001908152602001600020600082825461015591906104b6565b9250508190555050565b60008060008373ffffffffffffffffffffffffffffffffffffffff1673ffffffffffffffffffffffffffffffffffffffff16815260200190815260200160002060009054906101000a900460ff169050919050565b6000808273ffffffffffffffffffffffffffffffffffffffff1673ffffffffffffffffffffffffffffffffffffffff16815260200190815260200160002060009054906101000a900460ff1615610240576040517f08c379a000000000000000000000000000000000000000000000000000000000815260040161023790610536565b60405180910390fd5b60016000808373ffffffffffffffffffffffffffffffffffffffff1673ffffffffffffffffffffffffffffffffffffffff16815260200190815260200160002060006101000a81548160ff02191690831515021790555050565b600060026000838152602001908152602001600020549050919050565b600080fd5b6000819050919050565b6102cf816102bc565b81146102da57600080fd5b50565b6000813590506102ec816102c6565b92915050565b600060208284031215610308576103076102b7565b5b6000610316848285016102dd565b91505092915050565b600073ffffffffffffffffffffffffffffffffffffffff82169050919050565b600061034a8261031f565b9050919050565b61035a8161033f565b811461036557600080fd5b50565b60008135905061037781610351565b92915050565b600060208284031215610393576103926102b7565b5b60006103a184828501610368565b91505092915050565b60008115159050919050565b6103bf816103aa565b82525050565b60006020820190506103da60008301846103b6565b92915050565b6103e9816102bc565b82525050565b600060208201905061040460008301846103e0565b92915050565b600082825260208201905092915050565b7f566f746572206e6f742072656769737465726564000000000000000000000000600082015250565b600061045160148361040a565b915061045c8261041b565b602082019050919050565b6000602082019050818103600083015261048081610444565b9050919050565b7f4e487b7100000000000000000000000000000000000000000000000000000000600052601160045260246000fd5b60006104c1826102bc565b91506104cc836102bc565b92508282019050808211156104e4576104e3610487565b5b92915050565b7f566f74657220697320616c726561647920726567697374657265640000000000600082015250565b6000610520601b8361040a565b915061052b826104ea565b602082019050919050565b6000602082019050818103600083015261054f81610513565b905091905056fea264697066735822122081bfd255986ecea48252776a4cd02049e4007969516e94956598fa55ec4d5d2a64736f6c63430008110033",
  "immutableReferences": {},
  "source": "// SPDX-License-Identifier: GPL-3.0\r\npragma solidity >=0.6.0 <0.9.0;\r\n\r\nimport \"./InitialVoting.sol\";\r\n\r\ncontract VotingPlatform is InitialVoting {\r\n\r\n    mapping(uint => string) candidates;\r\n    mapping(uint => uint) votes;\r\n    uint candidatesCount;\r\n\r\n    constructor() public {\r\n\r\n        candidates[0] = \"Cadidate I\";\r\n        candidates[1] = \"Candidate II\";\r\n        candidates[2] = \"Candidate III\";\r\n        \r\n        votes[0] = 0;\r\n        votes[1] = 0;\r\n        votes[2] = 0;\r\n\r\n        candidatesCount = 3;\r\n\r\n    }\r\n\r\n    function vote(uint candidateID) public {\r\n        require(confirmVoter(msg.sender), \"Voter not registered\");\r\n        votes[candidateID] += 1;\r\n    }\r\n\r\n    function viewVotes(uint candidateID) public view returns(uint) {\r\n        return (votes[candidateID]);\r\n    }\r\n\r\n}",
  "sourcePath": "C:\\Users\\munem\\Desktop\\dVoting\\blockchain\\contracts\\VotingPlatform.sol",
  "compiler": {
    "name": "solc",
    "version": "0.8.17+commit.8df45f5f.Emscripten.clang"
  },
  "schemaVersion": "3.4.11",
  "updatedAt": "2023-02-16T19:34:28.148Z",
  "devdoc": {
    "kind": "dev",
    "methods": {},
    "version": 1
  },
  "userdoc": {
    "kind": "user",
    "methods": {},
    "version": 1
  }
}